P2PKH address: mwVRBTwuHzLc3JZ9xvn47czVDmEwebyfQD
sk: cTMx4ZMVW8b1JrfURdi8pqRN8a2yKn66WQLhLho9gpPtFsuTXMPg
value: 0.01927496
txid: dee1ed3f6c305e13004ca34ccc0dfc0bb7af10f647c4c880ad38a4a4b63ee5f5
vout: 0
scriptPubKey: 76a914af379fcf3f457c464f50be456a49a6f22019c73088ac

-----------------------------------------------

Bob sk: cVzf65djFRbgYN6W4iwSn6Use2S7jQtGhsYYQTJxHnAPRowbNF5N
Alice sk: cPpqNPQtBMh8GRcxD8e34UdergNbNFVFbETcRyt1wn57r8VsS8VV
x: cT3iDo6QMVkNhwXLjdWBgVJhPjUMG1At7uoBRKeuHT2qoSY7wteq
Change output sk: cPg1qrQrVDc6fvwSHWkGg64gVZHxekXQ7hU2AizkKWCpPxXvJm5J
0100000001f5e53eb6a4a438ad80c8c447f610afb70bfc0dcc4ca34c00135e306c3fede1de000000006a473044022053af065dfb2220e2d537debd9a26e514628a4fb58c61e05543bf03c39a8df3390220155102e9898d9d83923fb57a0747c56c9b560c4a0991ade743e56a72953ef1510121035daf18b5265a84e432ef46080fb26b46996628a98cc8f675ccca09721f859d33ffffffff02a08601000000000017a914c705426ecd4b427caefd4530d6f78c732b40956b87b4e01b00000000001976a914137aabb97216f7bdf4d5f4a53fc9504b0dcc396488ac00000000
txid: 3f11e68ec0798b3f550c99b232353f51ba9a2442c731580e521777c79c1829da

{
"value": 0.001,
"n": 0,
"scriptPubKey": {
"asm": "OP_HASH160 c705426ecd4b427caefd4530d6f78c732b40956b OP_EQUAL",
"hex": "a914c705426ecd4b427caefd4530d6f78c732b40956b87",
"reqSigs": 1,
"type": "scripthash",
"addresses": [
  "2NBPYktrgPvMkJyt5KiWzYBDes9QToUKhJE"
],
}
},
  {
"value": 0.01826996,
"n": 1,
"scriptPubKey": {
"asm": "OP_DUP OP_HASH160 137aabb97216f7bdf4d5f4a53fc9504b0dcc3964 OP_EQUALVERIFY OP_CHECKSIG",
"hex": "76a914137aabb97216f7bdf4d5f4a53fc9504b0dcc396488ac",
"reqSigs": 1,
"type": "pubkeyhash",
"addresses": [
  "mhHx61qiNcdFgXo722fDfMN4yRe1zH7bx8"
],
}
}